:100000000C94C9010C94DB010C94DB010C941302D9
:100010000C94B31D0C94DB010C94DA1D0C94DB01E1
:100020000C94DB010C94DB010C94DB010C94EB16BB
:100030000C94DB010C94DB010C94DB010C94DB01D0
:100040000C9498160C94DB010C94011B0C94831BEC
:100050000C94DB010C94DB010C94DB010C94DB01B0
:100060000C94DB010C94DB01FE30043107310A31C2
:100070000F3117311F31BA31BA31BA312C312F312A
:1000800038314131BA31BA31BA31BA31BA31BA3113
:100090004D31573163316B316E317731803186317B
:1000A000BA31BA318F319831A331E204751075102D
:1000B000EC04F70402050D057510110575101F05F8
:1000C0007510290533053D057510751075104D0522
:1000D0005A056705371B391B721B721B721B721B7B
:1000E000721B721B721B721B721B721B3F1B411B0C
:1000F000431B451B471B491B4B1B4D1B721B511BB5
:10010000531B551B571B591B5B1B721B5D1B084A5E
:10011000D73B3BCE016E84BCBFFDC12F3D6C74311B
:100120009ABD56833DDA3D00C77F11BED9E4BB4C72
:100130003E916BAAAABE000000803F05A84CCDB23C
:10014000D44EB93836A9020C50B9918688083CA61D
:10015000AAAA2ABE000000803F000D0A4772626C06
:1001600020312E316820426F6273434E43204B4C46
:10017000373535205B27242720666F722068656C31
:10018000705D0D0A00244E005B4F50543A005B56E0
:1001900045523A312E316820426F6273434E4320FC
:1001A0004B4C3735352E32303139303833303A0018
:1001B0005B544C4F3A005B4739323A0033300032DF
:1001C00038005B4700204700204D002053002046A8
:1001D0000020540033382E005B47433A47005B4809
:1001E0004C503A242420242320244720244920242E
:1001F0004E2024783D76616C20244E783D6C696EEB
:100200006520244A3D6C696E652024534C5020249F
:1002100043202458202448207E2021203F2063743E
:10022000726C2D785D0D0A00536C656570696E67A0
:1002300000526573746F72696E67207370696E64C3
:100240006C6500526573746F72696E6720646566D1
:1002500061756C74730050676D20456E640043686F
:1002600065636B204C696D69747300436865636BEB
:1002700020446F6F720044697361626C656400456D
:100280006E61626C65640043617574696F6E3A20DB
:10029000556E6C6F636B656400272448277C2724A8
:1002A000582720746F20756E6C6F636B00526573F6
:1002B000657420746F20636F6E74696E7565005B82
:1002C0004D53473A00414C41524D3A007C413A006F
:1002D0007C4F763A007C57434F3A007C506E3A0090
:1002E0007C46533A007C42663A007C57506F733A22
:1002F000007C4D506F733A00536C65657000446F1D
:100300006F723A00436865636B00416C61726D0007
:10031000486F6D65004A6F6700486F6C643A005221
:10032000756E0049646C65000D0A005B5052423ADC
:10033000006572726F723A00000020420000204295
:100340000000FA4300D4144700D414470000FA44D4
:1003500000BADB4900BADB4900BADB490040BFC440
:100360000040BFC40000FEC20A000CFF010AD723F0
:100370003C6F12033B00007A440000000031030090
:10038000007A4300007A45FA000000A0406F6B0D30
:100390000A0011241FBECFEFD8E0DEBFCDBF27E09B
:1003A000A0E0B1E001C01D92AB36B207E1F70E94B8
:1003B000922C0C94623B0C940000EBE6F0E0808100
:1003C000897E8083E8E6F0E080818E7F80830895D7
:1003D00084B1897E84B985B1866185B980917101C6
:1003E00083FF0BC080916B00866180936B008091CE
:1003F000680081608093680002C00E94DD0184B7BC
:10040000877F84BF8091600088618093600084E072
:10041000809360000895F999FECF92BD81BD81E07F
:100420008FBB80B508951F920F920FB60F921124C3
:100430002F933F934F935F936F937F938F939F93EC
:10044000AF93BF93EF93FF9380911A01813049F0EE
:1004500080911207811105C00E946C2981E00E94E1
:100460005E1DFF91EF91BF91AF919F918F917F9111
:100470006F915F914F913F912F910F900FBE0F9011
:100480001F90189593B196718091710186FD02C0FD
:1004900086E19827992349F091FB882780F992FDFE
:1004A0008260907119F08C60089580E0089561E099
:1004B00071E089E991E00C94771D9F92AF92BF9211
:1004C000CF92DF92EF92FF920F931F93CF93DF9320
:1004D0005B018A017C01E40EF51EEC01912C6B019D
:1004E000C81AD90AC6018C0F9D1FCE15DF0589F0E9
:1004F0000E940B02911008C0292D990C330B232F59
:10050000221F2227221F01C021E0982E920E8993DC
:10051000E9CFC501800F911F0E940B0221E030E05E
:10052000981611F020E030E0C901DF91CF911F91C2
:100530000F91FF90EF90DF90CF90BF90AF909F9082
:100540000895F894F999FECF92BD81BD81E08FBBEB
:1005500080B58627482F082E000C550B262F30E03B
:1005600024233523232B39F06F3F19F060BD84E03D
:1005700006C084E104C0882321F060BD84E28FBB03
:10058000F99A789408959F92AF92BF92CF92DF929A
:10059000EF92FF920F931F93CF93DF935C018A0139
:1005A0007B01E40EF51EEB01912C6C01C61AD70AF3
:1005B000CE018C0D9D1DCE15DF0589F0911008C070
:1005C000292D990C330B232F221F2227221F01C014
:1005D00021E06991922E960E0E94A102E9CF692D29
:1005E000C501800F911FDF91CF911F910F91FF9057
:1005F000EF90DF90CF90BF90AF909F900C94A102AE
:1006000090911B01911107C086FF02C02D9A01C075
:100610002D981092260108952F923F924F925F924B
:100620006F927F928F929F92AF92BF92CF92DF9202
:10063000EF92FF920F931F93CF93DF93CDB7DEB767
:10064000CA54D1090FB6F894DEBF0FBECDBF8AE3FE
:10065000E1ECF1E0DF011D928A95E9F78BE0E1E83A
:10066000F1E0A2ECB1E001900D928A95E1F7809162
:100670001B07843211F00C94961081E08093C20124
:100680001092C30183E08A8FB1E0BBA3212C312CEF
:100690001CA61BA610E01B8E1F8EEE24E394F12CEB
:1006A000EAE0AE2EB12CF1E68F2EF3E09F2E8A8D7C
:1006B000E82FF0E0E55EF84FD080DD2009F437C286
:1006C0009FEB9D0D9A3110F00C9465108F5F8A8F0F
:1006D000BE016A5E7F4FCE014A960E949029882310
:1006E00011F40C9467104E885F88688C798CC30174
:1006F000B2010E94CD3A0E940B38062F70E080E0D4
:1007000090E00E943C389B01AC01C301B2010E9401
:10071000923620E030E048EC52E40E94EA390E9430
:10072000573A0E940B38CB01E7E4DE1629F0FDE4CE
:10073000DF1609F4EAC035C1083209F4C6C020F555
:10074000043168F4013108F08AC0043009F452C061
:1007500008F464C00A3009F445C00C9475100C31DB
:1007600009F440C050F4063110F00C94751025E1E6
:10077000201B2093C40126E0ADC00E3199F1063252
:1007800009F44CC00C9475100D3309F498C0A8F40A
:10079000053381F140F40B3209F47AC0013309F4D6
:1007A00077C00C9475100C3310F00C9475106AEC33
:1007B000600F6093C80129E08DC00C3538F40A350C
:1007C00008F053C0003581F10C9475100C3551F0D0
:1007D0000F3510F00C9475102EE5201B2093C301EB
:1007E00025E078C0009731F42F8D21110C94691009
:1007F00031E03F8F0093C101202F2D7F2C3119F064
:100800000C3509F064C0009721F00A9711F00C94A0
:100810007510600F6093C10120E061C04F8D4111E0
:100820000C946910A2E0AF8F0093C201063209F068
:1008300050C08431910559F08E31910541F08832D4
:10084000910529F08233910511F00C947510B501D2
:100850000E94FF3A66576093C20121E040C06FEEEC
:10086000600F6093C60122E035C0892B31F466EA3F
:10087000600F6093C50123E032C06A30710511F04A
:100880000C9475100A3511F40C94751024E027C0EF
:10089000BF8DB1110C946910013331F41092C7016E
:1008A00028E0E3E0EF8F1BC00A9711F00C9475105D
:1008B000F1E0F093C70128E033E03F8F10C0892BAF
:1008C00011F00C9475102AE00AC027E003C020E064
:1008D00001C021E0892B19F087E10C949D10C7011C
:1008E00002C0880F991F2A95E2F72BA53CA5282363
:1008F0003923232B19F085E10C949D10ABA5BCA5E1
:10090000A82BB92BBCA7ABA7D2CE892B29F70630D1
:1009100018F4033058F016C0083010F40C94751019
:100920000A30F0F00E3159F00C947510002319F0D4
:10093000013011F104C0B3E0B093C9011DC00093B0
:10094000C9011AC0043021F0053031F080E101C046
:1009500080E28093CB0102C01092CB018CE00DC0ED
:10096000093031F08091CA0180648093CA0102C0CD
:100970001092CA018DE001C08BE0F70102C0EE0FBA
:10098000FF1F8A95E2F72BA53CA52E233F23232B9F
:1009900009F0B1CF2BA53CA52E2B3F2B3CA72BA7B5
:1009A00086CE8D2DDD0C990BAA0BBB0BFC01E654FA
:1009B000F109E531F10510F00C947510EB5AFF4F79
:1009C0000C94353B4092CD015092CE016092CF0104
:1009D0007092D00180E087C04092D1015092D20144
:1009E0006092D3017092D401116081E07CC040928A
:1009F000D5015092D6016092D7017092D801126051
:100A000082E071C04092D9015092DA016092DB011C
:100A10007092DC01146083E066C00093DD0184E025
:100A200062C0C301B2010E9404386093DE0170937A
:100A3000DF018093E0019093E10185E054C0409292
:100A4000E2015092E3016092E4017092E50186E0D8
:100A50004AC04092E6015092E7016092E80170922C
:100A6000E90187E040C04092EA015092EB016092B8
:100A7000EC017092ED0188E036C020E030E04FE7F5
:100A800053E4C301B2010E94AA39181614F40C945D
:100A90006B100093EE0189E026C04092EF01509266
:100AA000F0016092F1017092F2013B8D31603B8F59
:100AB0008AE019C04092F3015092F4016092F5016E
:100AC0007092F6014B8D42604B8F8BE00CC04092D0
:100AD000F7015092F8016092F9017092FA018B8D42
:100AE00084608B8F8CE06701082E02C0CC0CDD1C6B
:100AF0000A94E2F7960122213321232B11F00C9462
:100B00006D10D40102C0B595A7958A95E2F7A0FFB4
:100B10000BC020E030E0A901C301B2010E94883778
:100B200087FF02C00C946F102C283D28C0CDBB8DD0
:100B3000BB2329F0EF8DE11102C0F2E0FF8F25FE0B
:100B40000FC08091DE019091DF01A091E001B09192
:100B5000E10181389649A849B10514F00C9471104F
:100B60003BA1332329F020FC02C00C947B1018C059
:100B70008091C301813071F44F8D4230E1F5809155
:100B8000C2018035C1F18823B1F120FC02C00C9470
:100B90007B1031C08091820181112DC020FE1BC0CD
:100BA0008091C401813039F523E333E34BEC51E408
:100BB0006091CD017091CE018091CF019091D001D3
:100BC0000E94EA396093CD017093CE018093CF01EA
:100BD0009093D00110C08091900190919101A091CB
:100BE0009201B09193018093CD019093CE01A09397
:100BF000CF01B093D00130FC10C080918C01909156
:100C00008D01A0918E01B0918F018093EA019093A4
:100C1000EB01A093EC01B093ED018091C101843010
:100C200039F426FC03C08CE10C949D10E89426F85E
:100C30008091C601882369F0813029F48FAF1DAE01
:100C400092E09BAF0BC01FAEA2E0ADAFB1E0BBAF77
:100C500005C0E2E0EFAFF1E0FDAF1BAE8091C40153
:100C6000813021F02F8D2330C9F52FC061ECC62EC5
:100C700061E0D62EE12CF12C3B8DA32EB12CC501C9
:100C80000E2C02C0959587950A94E2F780FF12C05A
:100C900023E333E34BEC51E4D6019E966D917D91B5
:100CA0008D919C91D1970E94EA39F60166A777A7AA
:100CB00080AB91ABFFEFEF1AFF0A24E0C20ED11C0C
:100CC00033E0E316F104D9F6CDCF8091C70181302E
:100CD00029F44B8D443011F00C9473108CE0E5EA4C
:100CE000F1E0DE01119601900D928A95E1F78BA556
:100CF0009CA591FD08C00091C1010A30C9F00C35D6
:100D000009F4B3C01EC18091C801873018F08DE18D
:100D10000C949D1090918701891769F3BE016F5F54
:100D20007F4F0E94831A882311F40C948910E3CF1B
:100D30009B8D911103C08AE10C949D10C1018075B7
:100D40009927892B09F46FCF6091E2017091E3013B
:100D50008091E4019091E5010E94CD3A0E940B3808
:100D60006730A8F68091DD01843141F0823011F0C6
:100D70000C94751027FE02C00C947510AFEA2A225D
:100D8000662319F0615069A703C0B091C801B9A7E3
:100D900061ED71E089A50E94831A882311F40C94F7
:100DA00089100091DD014090BD015090BE0160901E
:100DB000BF017090C00141ECE42E41E0F42E51E8F7
:100DC000A52E51E0B52EC12CD12CEB8D8E2E912C61
:100DD000C4010C2C02C0959587950A94E2F780FF18
:100DE00035C0043151F5D501D0962D913D914D91ED
:100DF0005C91D39758966D917D918D919C915B9765
:100E00000E949236F70126A537A540A951A90E9454
:100E10009236D70150966D937D938D939C93539703
:100E2000B2E0CB1213C0A30192010E949236F701E7
:100E3000608B718B828B938B09C0F70186A597A578
:100E4000A0A9B1A9808B918BA28BB38BFFEFCF1A96
:100E5000DF0A24E0E20EF11C34E0A30EB11C43E0F3
:100E6000C416D10409F0B4CF3FC18B8D882309F497
:100E700062CF4090BD015090BE016090BF01709064
:100E8000C00121E8822E21E0922EDE0111967D0123
:100E900031ECC32E31E0D32EA12CB12CE82FF0E0A1
:100EA000F8A7EFA38FA198A50A2C02C09595879566
:100EB0000A94E2F780FF29C0D7012D913D914D9111
:100EC0005C91F401608D718D828D938D0E949236BC
:100ED000D6019E962D913D914D915C91D1970E94A6
:100EE0009236F60166A777A780AB91ABF2E0AF121E
:100EF00016C0A30192010E949236D6019E966D9370
:100F00007D938D939C93D1970AC0F40180A991A9F8
:100F1000A2A9B3A9F60186A797A7A0ABB1ABFFEF33
:100F2000AF1ABF0A24E0820E911C34E0E30EF11CDC
:100F300044E0C40ED11C83E0A816B10409F0B2CF7E
:100F4000D2C09F8D933069F40E3109F494C00533FB
:100F500009F4C3C00C3109F0C6C061ED71E086E050
:100F60008DC0AB8DAA2381F3B091C501BFA3409082
:100F7000BD015090BE016090BF017090C00181E83A
:100F8000A82E81E0B82E91ECE92E91E0F92EFE0119
:100F900031964F01C12CD12C2A2F30E03AA729A736
:100FA00089A59AA50C2C02C0959587950A94E2F71D
:100FB00080FD0BC0F501808D918DA28DB38DF70161
:100FC00086A797A7A0ABB1AB44C0053309F441C0D5
:100FD000FFA1F1112BC0D501D0962D913D914D91DE
:100FE0005C91D397F40160817181828193810E9429
:100FF0009336D7019E962D913D914D915C91D1975D
:101000000E949336F70166A777A780AB91ABF2E019
:10101000CF121FC0A30192010E949336D7019E9662
:101020006D937D938D939C93D19713C0F501208D83
:10103000318D428D538DD7019E966D917D918D910D
:101040009C91D1970E949336F70166A777A780AB52
:1010500091ABFFEFCF1ADF0A24E0A20EB11C34E0FF
:10106000E30EF11C44E0840E911C83E0C816D10409
:1010700009F096CF69CF61ED71E087E00E94831A95
:10108000882311F40C9489109B8D911103C019A62B
:101090001F8E2AC0A1E8B1E0E1ECF1E080E090E031
:1010A0004B8D242F30E0A901082E02C0559547959D
:1010B0000A94E2F740FD0AC058964D915D916D91FA
:1010C0007C915B97408B518B628B738B019614964E
:1010D00034968330910539F706C08091C201823081
:1010E00010F00C94771019A68091C2018FA380355F
:1010F00029F49B8D91110C9479107AC2AF8DA23096
:1011000009F076C2BFA1B11104C0EB8DE11170C22C
:101110002AC020E030E0A9016091CD017091CE019C
:101120008091CF019091D0010E948837882309F4E3
:10113000E2C7FFA1FC3809F445C240F4F230A9F03F
:10114000F330B1F0F13009F053C20AC02FA12E38AC
:1011500009F438C208F433C22F3809F430C248C247
:101160003B8D311145C21F8E43C24BA144604BA33E
:101170008B8D882309F4DFCDBBADAB2FB0E0B8ABCE
:10118000AFA7FDADEF2FF0E0FCABEBAB81E090E063
:101190007C010BAC02C0EE0CFF1C0A94E2F70DAC14
:1011A00002C0880F991F0A94E2F7E82AF92A2B8DCA
:1011B000822F90E08E219F21892B09F49EC7FD018B
:1011C000EE0FFF1FEE0FFF1FEF53FE4FAA0FBB1FC7
:1011D000AA0FBB1FA756BE4F2D913D914D915C911B
:1011E00066A577A580A991A90E9492362B013C01A2
:1011F000EBA9FCA9EE0FFF1FEE0FFF1FEF53FE4FF1
:10120000ABA9BCA9AA0FBB1FAA0FBB1FA756BE4FF5
:101210002D913D914D915C9166A577A580A991A9ED
:101220000E9492364B015C01610130E8C322DD244B
:1012300027FEF5C0E89427F84CE050E06FEE71E02F
:1012400089E991E00E94553B892B11F481E275C731
:101250008091C4018130B1F423E333E34BEC51E4DA
:101260006091E6017091E7018091E8019091E901B8
:101270000E94EA396093E6017093E7018093E801E8
:101280009093E9018091E6019091E701A091E80136
:10129000B091E9018FAB98AFA9AFBAAFA3019201AA
:1012A000C301B2010E94EA3927966CAF7DAF8EAFC1
:1012B0009FAF2797A5019401C501B4010E94EA39A7
:1012C0002B966CAF7DAF8EAF9FAF2B9720E030E0B9
:1012D00040E850E46FA978AD89AD9AAD0E94EA3933
:1012E0002FA938AD49AD5AAD0E94EA3927962CADE9
:1012F0003DAD4EAD5FAD27970E9492362B962CAD3B
:101300003DAD4EAD5FAD2B970E9492366B017C01D7
:1013100020E030E0A9010E94883787FDF0C6C701B0
:10132000B6010E94893A6B017C012B962CAD3DAD34
:101330004EAD5FAD2B9727966CAD7DAD8EAD9FAD5D
:1013400027970E9493360E94893A9B01AC01C701FE
:10135000B60190580E9492376B017C019FA1933097
:1013600021F4F7FAF094F7F8F09420E030E0A901C6
:101370006FA978AD89AD9AAD0E94883787FF11C0FB
:10138000F7FAF094F7F8F0948FA998ADA9ADBAAD3B
:10139000B0588093E6019093E701A093E801B093E1
:1013A000E9010FA518A9000F111F000F111F0F52FF
:1013B0001E4FA7019601C501B4010E94EA399B01A5
:1013C000AC01C301B2010E94923620E030E040E05F
:1013D0005FE30E94EA39D8016D937D938D939C93CE
:1013E00013970BA91CA9000F111F000F111F0F52FB
:1013F0001E4FA7019601C301B2010E94EA39A5015F
:1014000094010E94933620E030E040E05FE30E94C8
:10141000EA39F8016083718382839383E9C0212FC5
:1014200030E038AF2FABE222F322EF2809F469C68F
:1014300031EF23228091C401813009F47BC0EFA5F4
:10144000F8A9EE0FFF1FEE0FFF1FEF52FE4FC080F7
:10145000D180E280F380A7019601C301B2010E940E
:1014600092362B013C01EBA9FCA9EE0FFF1FEE0FFA
:10147000FF1FEF52FE4F80819181A281B3818FA720
:1014800098ABA9ABBAAB9C01AD01C501B4010E94F8
:1014900092364B015C01A3019201C301B2010E948B
:1014A000EA392B013C01A5019401C501B4010E9458
:1014B000EA399B01AC01C301B2010E9493360E943C
:1014C000893A4B015C01A7019601C701B6010E9450
:1014D000EA396B017C012FA538A949A95AA9CA018B
:1014E000B9010E94EA399B01AC01C701B6010E9413
:1014F00093360E94893A6B017C016093E6017093F8
:10150000E7018093E8019093E9019B01AC01C501DB
:10151000B4010E9492364B015C01E894B7F82AE0CE
:1015200037ED43EA5BE3C501B4010E94AA391816FE
:101530004CF15EC001EC11E08FA998AD0C2C02C0FB
:10154000959587950A94E2F780FF12C023E333E371
:101550004BEC51E4D80150966D917D918D919C9109
:1015600053970E94EA39F801608B718B828B938BC1
:10157000FFEFCF1ADF0A0C5F1F4F23E0C216D10422
:10158000D9F65DCF20E030E040E05FE3C501B40173
:101590000E94AA3918160CF459CE2FE632E143E81E
:1015A0005AE3C701B6010E94EA399B01AC01C501AB
:1015B000B4010E94AA3918160CF448CE19C03BA1F8
:1015C00030613BA38FA18E58823018F44BA1486044
:1015D0004BA38B8D882309F4AECB4CE050E06FEE2B
:1015E00071E089E991E00E94553B892B09F42ECEE8
:1015F0002BA121709BA190FF03C0C1018E7D03C070
:10160000C1018E7D9C7FAF8DA111937E892B09F046
:101610007AC58E01035F1F4F89E0F80111928A9508
:10162000E9F7222309F44BC08BA59CA5867B892B67
:1016300009F06BC58091C101853311F0811165C539
:1016400080918C0190918D01A0918E01B0918F01BC
:10165000898B9A8BAB8BBC8B90918A01809189018D
:10166000892B4091CD015091CE016091CF017091B5
:10167000D0014D875E876F87788B84608D8B8091DA
:10168000710185FF06C08FEE91E00E944632811104
:101690003EC5B8018FEE91E00E942F3680911A016D
:1016A000811139C50E94BE27892B09F434C580E217
:1016B00080931A010E94191E0E9455192CC5809111
:1016C0007101F0908A0181FF26C08FA18150833083
:1016D00018F0FBA1F064FBA32B8D222339F03F8D82
:1016E000323021F44BA140684BA315C080E1F812C1
:1016F00012C08091810181509BA19074833030F49D
:10170000992349F09BA190629BA305C0911103C04E
:10171000ABA1A062ABA38091DE019091DF01A0910B
:10172000E001B091E1018093950190939601A0931F
:101730009701B09398018091C3018093820188231F
:1017400011F088E08D8B8091CD019091CE01A09118
:10175000CF01B091D0018093900190939101A0931B
:101760009201B09393018D879E87AF87B88B80904D
:10177000EA019090EB01A090EC01B090ED01A50181
:10178000940160918C0170918D0180918E019091F6
:101790008F010E948837BBA1B074EB2E811103C06A
:1017A000EBA1E5FF20C0FF2071F0FBA1F7FD0BC00E
:1017B000EE2021F040E050E0BA0102C0B501A401E2
:1017C0008F2D0E94FE318091EA019091EB01A09152
:1017D000EC01B091ED0180938C0190938D01A09369
:1017E0008E01B0938F01E1100CC080918C0190911B
:1017F0008D01A0918E01B0918F01898B9A8BAB8B5B
:10180000BC8B8091EE01809394018091CB019091EB
:101810008A01981751F049895A896B897C890E94FD
:10182000FE318091CB0180938A019D8980918A014C
:10183000892B8D8BF090CA01809189018F1569F0F9
:1018400080911A01823029F00E94CE278F2D0E94AC
:1018500000038091CA01809389019D89809189014B
:10186000892B8D8B8091C101843099F4C090E20165
:10187000D090E301E090E401F090E50180911A013D
:10188000823039F00E94CE2740E0C701B6010E94A5
:101890003D298091C601809385018091C401809388
:1018A00083012F8D233071F58091C70180938601CC
:1018B000811108C01092F7011092F8011092F901FD
:1018C0001092FA01C090F701D090F801E090F90170
:1018D000F090FA01A70196016091BD017091BE01DF
:1018E0008091BF019091C0010E948837882351F0F8
:1018F000C092BD01D092BE01E092BF01F092C00142
:101900000E94AD328091C80190918701981769F0CB
:10191000809387018CE0FE013196A5EAB1E0019049
:101920000D928A95E1F70E94AD328091C5018093B6
:1019300084018091C1018632F1F138F48C3109F1D2
:101940008E31F9F08A3069F04FC08C35D1F186368E
:1019500009F441C0883209F047C069E971E087E0C5
:101960002DC061ED71E089A50E946F1A80918701F9
:1019700039A5381339C08CE0E1EDF1E0A5EAB1E01A
:1019800025C08D8981608D8B4F8D442329F0B8014E
:101990008FEE91E00E942F36B80181ED91E00E9418
:1019A0002F368CE0E1EDF1E0A9E9B1E001900D9274
:1019B0008A95E1F719C069E971E086E00E946F1A23
:1019C00013C08CE0EFEEF1E0A1EBB1E001900D92DD
:1019D0008A95E1F707C08CE0E1EBF1E0DF011D92B1
:1019E0008A95E9F70E94AD328091C201809381010E
:1019F000803509F41CC3BF8DB23009F018C38130A3
:101A000021F4BE01635F7F4F06C0811109C08D893B
:101A100081608D8BB8018FEE91E00E942F36FEC25F
:101A20008250823008F093C28091E6019091E701E4
:101A3000A091E801B091E9018F8F98A3A9A3BAA35F
:101A4000ABAD94E0A99F70011124F701E756FE4F5A
:101A5000F8A7EFA397012F523E4F3AA729A7D90124
:101A60004D905D906D907C902081318142815381B9
:101A7000C301B2010E9493366BA77CA78DA79EA7D6
:101A8000EDADB4E0EB9F80011124980127563E4F45
:101A90003CAF2BAFC8018F529E4F9EAF8DAFDC0184
:101AA0008D909D90AD90BC90F90120813181428153
:101AB0005381C501B4010E9493366FA778AB89ABFF
:101AC0009AAB77FA709477F87094D501C401B05846
:101AD0008B8F9C8FAD8FBE8FF701E151FE4F2BA5F1
:101AE0003CA54DA55EA560817181828193810E9494
:101AF00092366B017C01F801E151FE4F2FA538A908
:101B000049A95AA960817181828193810E9492368C
:101B10004B015C01A7019601C301B2010E94EA39A1
:101B20006BAB7CAB8DAB9EABA50194016B8D7C8DBB
:101B30008D8D9E8D0E94EA399B01AC016BA97CA919
:101B40008DA99EA90E9493366BAB7CAB8DAB9EABEF
:101B5000A5019401C301B2010E94EA394B015C0165
:101B6000A70196016B8D7C8D8D8D9E8D0E94EA392B
:101B70009B01AC01C501B4010E9492362BA93CA97E
:101B80004DA95EA90E9412376B017C019BA192FFB7
:101B900013C02DEB37E346E055EBC701B6010E94B9
:101BA000AA3987FD1DC02BED3FE049EC50E4C70189
:101BB000B6010E94923612C02DEB37E346E055E3A2
:101BC000C701B6010E948837181654F02BED3FE08C
:101BD00049EC50E4C701B6010E9493366B017C01C9
:101BE0008090650190906601A0906701B0906801B7
:101BF0002F8D38A149A15AA1CA01B9010E9493367B
:101C0000A50194010E949236A50194010E94EA392F
:101C10000E94893A4B015C0120E030E040E05FE344
:101C2000C701B6010E94EA392F8D38A149A15AA1F6
:101C30000E94EA399F77A50194010E9492370E9481
:101C400077380E940B387CAB6BABDB01AB2B09F414
:101C5000D8CE1D894B01A12CB12C13FF12C0C50198
:101C6000B4010E943A389B01AC016D857E858F8559
:101C700098890E94EA396D877E878F87988B177FB6
:101C80001D8BC501B4010E943A384B015C019B01D8
:101C9000AC01C701B6010E9492376BA37CA38DA350
:101CA0009EA3EFADB4E0EB9FC00111248C01075659
:101CB0001E4FFC01E151FE4FD8012D913D914D91F8
:101CC0005C9160817181828193810E949236A5012D
:101CD00094010E94923727966CAF7DAF8EAF9FAF75
:101CE00027972BA13CA14DA15EA1CA01B9010E9479
:101CF000EA399B01AC0160E070E080E090E40E9472
:101D000092366B017C012BEA3AEA4AE25EE36BA170
:101D10007CA18DA19EA10E94EA394B015C0120E0CB
:101D200030E040E850E4C701B6010E9493369B01C1
:101D3000AC01C501B4010E94EA396FAB78AF89AF3D
:101D40009AAF20E030E040E05FE3C701B6010E94B7
:101D5000EA3923966CAF7DAF8EAF9FAF23971F8E6E
:101D600022242394312CEBA9FCA9E215F30509F4F4
:101D700048CEBF8DBC3008F044C02B8D3C8D4D8DBE
:101D80005E8D23966CAD7DAD8EAD9FAD23970E9489
:101D9000EA396B017C01A30192016FA978AD89AD8D
:101DA0009AAD0E94EA39A70196010E9493367B0101
:101DB0006C01A301920123966CAD7DAD8EAD9FADFC
:101DC00023970E94EA394B015C012B8D3C8D4D8D90
:101DD0005E8D6FA978AD89AD9AAD0E94EA399B01FD
:101DE000AC01C501B4010E9492362B013C01EF8D7C
:101DF000EF5FEF8F470156018B8E9C8EAD8EBE8EAE
:101E000065C0B10180E090E00E943A382BA13CA16E
:101E10004DA15EA10E94EA396B017C010E948D37C1
:101E20006B8F7C8F8D8F9E8FC701B6010E947B3A8E
:101E30004B015C01A9A5BAA5CD90DD90ED90FC9079
:101E4000F7FAF094F7F8F094ADADBEAD8D919D9199
:101E50000D90BC91A02D8F8F98A3A9A3BAA3A70121
:101E600096016B8D7C8D8D8D9E8D0E94EA392B01A4
:101E70003C012F8D38A149A15AA1C501B4010E948E
:101E8000EA399B01AC01C301B2010E9493362B01D8
:101E90003C01A7019601C501B4010E94EA396B011A
:101EA0007C012F8D38A149A15AA16B8D7C8D8D8D20
:101EB0009E8D0E94EA399B01AC01C701B6010E94C8
:101EC00092366B8F7C8F8D8F9E8F1F8EA301920118
:101ED0006BA57CA58DA59EA50E949336EFA1F8A5C4
:101EE00060837183828393832B8D3C8D4D8D5E8DBA
:101EF0006FA578A989A99AA90E949336ABADBCAD0C
:101F00006D937D938D939C93139727962CAD3DAD48
:101F10004EAD5FAD2797F801608171818281938119
:101F20000E949336D8016D937D938D939C93139764
:101F3000BE01635F7F4F89E991E00E942F36809157
:101F40001B0181116BC0BFEF2B1A3B0A0CCF8D898F
:101F500084608D8B80911A01823009F45FC00E94E9
:101F6000CE2780911B01811162C0FBA1F071FF2E71
:101F700010921F012BA123FB882780F90E9438268D
:101F800086B1807290910001891749F084E00E9427
:101F90005E1D0E94451580E00E94382648C0B801A9
:101FA0008FEE91E00E942F3681E08093190182E04C
:101FB0000E946E1D0E94451580911B01811137C042
:101FC00080911A018111F6CF80911901813081F43D
:101FD000FF2051F08CE0E1E0F1E0ADE0B1E00190F4
:101FE0000D928A95E1F707C085E00E945E1D03C04F
:101FF00081E080931F011092190180E00E94382631
:102000000E9445150E94F6250E94DF270E943A276C
:102010000E941C3280911F0181118CC08CE0EFEE78
:10202000F1E0A9E9B1E001900D928A95E1F7809184
:10203000C90180938801882309F47FC00E94CE27BC
:102040008091880190911A01833041F49230D1F14E
:1020500088E00E946E1D0E94451534C081E0809387
:1020600081011092850110928401109282011092D8
:10207000870110928A011092890184E680932201DF
:102080008093230180932401923091F065EA71E0FE
:1020900080E00E94831A8823E1F10E94AD3240E083
:1020A00050E0BA0180E00E940A1A80E00E9400031A
:1020B0008FEB92E00E942B2786E592E00E942B276F
:1020C0000E940811109288012FC081E036C082E082
:1020D00034C088E132C086E230C089E12EC084E09D
:1020E0002CC08BE12AC085E228C084E126C08EE1A5
:1020F00024C08FE122C086E120C080E21EC082E2BF
:102100001CC083E21AC084E218C080E116C08FE0D0
:1021100014C087E012C08CE0EFEEF1E0A9E9B1E075
:1021200001900D928A95E1F780E007C01A8E1BA2FC
:102130000C9446030E9457027ACFC65BDF4F0FB65E
:10214000F894DEBF0FBECDBFDF91CF911F910F91ED
:10215000FF90EF90DF90CF90BF90AF909F908F90C7
:102160007F906F905F904F903F902F9008950F93C6
:102170001F93CF938C01C0E0F8016191719181911F
:1021800091918F010E94F626C23019F08CE20E94D4
:10219000AD1BCF5FC33081F7CF911F910F91089591
:1021A00088E293E00C942B27CF92DF92EF92FF927C
:1021B000CF93DF93D82F6A017B01C22F84E20E9464
:1021C000AD1B8D2F0E9405278DE30E94AD1B4C2F68
:1021D000C701B6010E944A26DF91CF91FF90EF9090
:1021E000DF90CF900C94D010CF93DF93D82FC62FD1
:1021F00084E20E94AD1B8D2F0E9405278DE30E9473
:10220000AD1B8C2F0E940527DF91CF910C94D0102D
:102210008DE50E94AD1B0C94D0103F924F925F92BF
:102220006F927F928F929F92AF92BF92CF92DF92E6
:10223000EF92FF920F931F93CF93DF93CDB7DEB74B
:10224000A4970FB6F894DEBF0FBECDBF1091120752
:10225000112391F181E080931A0185EC92E00E94B4
:102260002B27812F0E9405270E94D01085EF91E037
:10227000019739F0EFE9FFE03197F1F700C0000076
:10228000F7CF1150123030F08FB7F8941092120738
:102290008FBF12C08FEB92E00E942B278DEA92E055
:1022A0000E942B270E94081180E10E94641D8091EA
:1022B000110784FFFCCFE8CF10911107112309F417
:1022C000B1C214FF04C081E080931B01C6C310FF9C
:1022D000B5C18CE0E1E0F1E0DE01599601900D928C
:1022E0008A95E1F7BE01675E7F4FCE010D960E9491
:1022F000771D8CE30E94AD1B80911A018830E1F0BC
:1023000058F4813099F1A8F0823099F1843009F0C5
:1023100043C080E193E03EC0803229F118F480315F
:1023200071F03AC0803441F18038B1F588EF92E025
:1023300031C083E293E02EC08FE193E02BC0809107
:102340001C0187FD10C089E193E00E942B2780913A
:102350001C0180FF06C080E31AC082FF17C085FF02
:10236000FACF81E314C085E193E014C08AE093E0E2
:1023700011C084E093E00EC08EEF92E00E942B2704
:1023800080911C0183FFE9CF83E301C082E30E94B7
:10239000AD1B02C00E942B2780916001F82FF170C5
:1023A000BF2E80FF07C080912701882319F081EF9D
:1023B00092E053C04090BD015090BE016090BF01BB
:1023C0007090C00155EA852E51E0952E9E012F5F39
:1023D0003F4F7901CE010D966C0100E0F40161914F
:1023E0007191819191914F0120853185428553856D
:1023F0000E949336F7016083718382839383023056
:1024000061F4A30192010E949336F7016083718306
:1024100082839383BB2019F0CACFB11011C0F7019A
:102420002081318142815381F601608171818281F5
:1024300093810E949236F601608371838283938335
:102440000F5FF4E0EF0EF11C24E0C20ED11C03304C
:1024500029F6B110ACCF8AEE92E00E942B27CE0174
:102460000D960E94B7108091600181FF1FC085EE1C
:1024700092E00E942B279091550680913403981783
:1024800010F0815F01C08150891B0E9405278CE2FA
:102490000E94AD1B8091980290919902981710F0BC
:1024A000805801C08150891B0E94052780EE92E070
:1024B0000E942B2780911A018C7749F06091F806D1
:1024C0007091F9068091FA069091FB0603C060E0D6
:1024D00070E0CB010E94E7268CE20E94AD1B609168
:1024E00028017091290180912A0190912B0140E0EF
:1024F0000E944A260E944202F82E0E94C81D082F00
:1025000086B1982F907280910001E92EE8268F2DD8
:10251000802B8E2961F18BED92E00E942B27EE201B
:1025200019F080E50E94AD1BFF2081F08F2D89708E
:1025300019F088E50E94AD1BF1FE03C089E50E94F9
:10254000AD1BF2FE03C08AE50E94AD1B002379F0AB
:1025500000FF03C082E50E94AD1B01FF03C088E4B9
:102560000E94AD1B02FF03C083E50E94AD1B80915A
:102570002701882321F081508093270118C0809182
:102580001A018C7711F08DE101C089E08093270159
:1025900080912601811103C081E08093260185EDA1
:1025A00092E00E942B27CE0101960E94B7108091E5
:1025B0002601882321F081508093260137C0809125
:1025C0001A018C7711F083E101C089E08093260124
:1025D00080ED92E00E942B27809122010E94052726
:1025E0008CE20E94AD1B809123010E9405278CE2A2
:1025F0000E94AD1B809124010E9405270091B0002C
:102600002D9B03C040E4F42E03C007FF0FC0F12C44
:102610008CEC92E00E942B2707FF03C083E50E9409
:10262000AD1BFF2019F086E40E94AD1B8EE30E94D3
:10263000AD1B0E94D01081E00E94641D812F887E16
:1026400009F467C080911A01982F937009F050C067
:102650008872A1F080911C01807C81F40E94D225B7
:1026600082E080931E0180911A01803239F417FDB7
:10267000F2C180911C01806880931C0180911A0135
:10268000811103C091E090931C0116FF07C085FDE6
:1026900005C090911C01906490931C0113FF05C02C
:1026A000807E19F480E180931A0115FF21C08FEB21
:1026B00092E00E942B278BE692E00E942B270E943B
:1026C000081180911C0187FD0EC090911A01903471
:1026D00039F483FFBCC1837E826080931C01B7C143
:1026E000903809F0B4C180911C01806280931C0174
:1026F00017FF0CC080911A01813029F480911C01D0
:10270000856080931C0180E880931A0188EE0E9406
:10271000641D11FF44C0812F8876F1F580911A0164
:10272000803471F480911C0185FD0AC084FF03C0D0
:1027300010921A0105C082FF03C0886080931C01BB
:1027400080911A01882381F084FF26C090911C019A
:1027500090FF22C0803141F480912501882321F02F
:1027600088608093250118C010921E010E94BE2728
:10277000892B71F080911C0186FD0AC010921C010A
:1027800088E080931A010E94191E0E94551904C006
:1027900010921C0110921A0182E00E94641D12FF27
:1027A00041C080911A01807D90911C018823D9F04D
:1027B00080911D01811117C097FD15C00E94D2257F
:1027C00080913403809333030E94F02780911E018F
:1027D00081FF05C090911C01916090931C01897F3D
:1027E00080931E011CC097FF0AC010921E010E9418
:1027F000DF270E94F6250E9457020E943A27809107
:102800001C0185FF08C08F77816080931C0180E4E4
:1028100080931A0104C010921C0110921A0184E0E6
:102820000E94641D90911307992309F4ABC08FB7E0
:10283000F894109213078FBF4091220190FD02C0BF
:10284000842F01C084E691FD865F92FD8A5093FD3E
:102850008F5F94FD8150893C08F088EC8A3008F441
:102860008AE03091230195FD02C0232F01C024E6A8
:1028700096FD22E397FD29E1481303C0231709F4CD
:1028800081C0809322012093230110922601109190
:1028900034033090550689E9D82E96E7E92E26E9CB
:1028A000F22E0EE732E3432E131509F457C0812EA2
:1028B000912C489CC001499C900D1124FC01EB5CBB
:1028C000FC4F5F01CF010E944B27562E672E782EBA
:1028D000C92E2D2D3E2D4F2D502F0E94AA3918168E
:1028E0004CF42D2D3E2D4F2D502F6D2D7E2D8F2DE7
:1028F000902F08C0252D362D472D5C2D652D762D6A
:10290000872D9C2D0E94EA39F501668B778B808F8D
:10291000918F489CC001499C900D11249C012B5C17
:102920003C4F7901F90182A093A0A4A0B5A0A50114
:10293000940166897789808D918D0E94AA39181635
:102940002CF4F701868A978AA08EB18E1F5F103112
:1029500009F410E0D52C73010C2DA6CF8D2D9E2DE2
:10296000AF2DB02F8093130290931402A093150201
:10297000B09316020E94D2258091340380933303D2
:102980000E94F02710911407112309F459C08FB742
:10299000F894109214078FBF9091240110FD02C08B
:1029A000892F01C084E611FD865F12FD8A5013FD58
:1029B0008F5F14FD8150893C08F088EC8A3008F460
:1029C0008AE09817D1F08093240180911A01811137
:1029D0000DC040918C0150918D0160918E017091DC
:1029E0008F0180918A010E940A1A05C080911E0100
:1029F000886080931E011092260180911A0115FFB4
:102A00000DC0803159F490912501911102C092E0DE
:102A100003C090FF03C0946090932501107C81F067
:102A2000882311F0887361F01091890116FF02C0AC
:102A30001F7B01C01064812F0E9400031093890145
:102A400080911A018C7F49F00E94191E06C080E413
:102A500080931A0148CE80E218CEA4960FB6F8945F
:102A6000DEBF0FBECDBFDF91CF911F910F91FF90C1
:102A7000EF90DF90CF90BF90AF909F908F907F901E
:102A80006F905F904F903F900895CF92DF92EF92BA
:102A9000FF921F93CF93DF930E940D1180911C0131
:102AA000882309F4FEC00E94BE27009771F4C091EC
:102AB0008A0180918901C82BC0908C01D0908D0132
:102AC000E0908E01F0908F010EC0FC01C189C073AF
:102AD0002D9B02C020E401C020E0C22BFC01C6A453
:102AE000D7A4E0A8F1A88091710181FF03C080E222
:102AF0000E944C1DDC2FD07311E0C07C80911C0122
:102B0000882309F4CEC090911B019111CAC080FFA7
:102B1000C5C090911A01292F207C09F474C082FD50
:102B200012C01092250140E050E0BA0180E00E94FE
:102B30000A1A80E00E94000380911C018D7F84604E
:102B400080931C01ABC09038E1F48FEB92E00E94BF
:102B50002B2788E292E00E942B270E94081140E078
:102B600050E0BA0180E00E940A1A80E00E9400034F
:102B70000E94B51680911B01811193C00E940D1116
:102B8000F9CF903419F48F7D80931C0180911C0142
:102B900083FF84C090918A019923C1F081FD16C002
:102BA0008091710181FF06C080911E018860809331
:102BB0001E010CC0B701A6018D2F0E940A1A41E028
:102BC00060E070E080E890E40E943D2980918901F6
:102BD000882371F080911C0181FD0AC08C2F0E9416
:102BE000000341E060E070E080E89FE30E943D293F
:102BF00080911C0181FD52C0806180931C0182E0A4
:102C00000E946E1D4BC0809125018823C9F181FF70
:102C10000DC080918A018823B1F040E050E0BA01F4
:102C200080E00E940A1A1093250138C08C70B1F11F
:102C300080918A0181110AC08091250183FF03C020
:102C400082E00E946E1D1092250128C08FEB92E059
:102C50000E942B2781E392E00E942B270E940811FB
:102C60008091710181FF06C080911E018860809370
:102C70001E01E2CFB701A6018D2F0E940A1ADCCFF8
:102C800080911E0183FF0AC0B701A6018D2F0E940B
:102C90000A1A80911E01877F80931E010E940D11E8
:102CA0002DCFDF91CF911F91FF90EF90DF90CF90CC
:102CB00008950E94BE27892B19F082E00C946E1DA6
:102CC00008958093B300811104C08091B0008F7784
:102CD00003C08091B00080688093B0000895309167
:102CE0005D01632F20915E01422F932F917030FD83
:102CF00094E0822F817020FD80E261FD986041FDAB
:102D0000806462FD906142FD806890930B03809324
:102D10000C031092090310920A0333FF03C080E1F1
:102D20008093090323FF03C088E080930A0308957A
:102D30001F920F920FB60F9211248F939F938BB116
:102D400090910B039C71837E892B8BB988B19091F4
:102D5000090390718F7E892B88B915BC9F918F9143
:102D60000F900FBE0F901F90189580916F008D7F70
:102D700080936F0080918100887F816080938100C3
:102D800010920D0380915F0190911A018F3F39F4E9
:102D900020911207211103C0903881F402C09430B1
:102DA00069F090E0009741F0EFE9FFE03197F1F72B
:102DB00000C000000197F6CF81E001C080E0909153
:102DC000710192FF02C091E08927882311F0289AAF
:102DD0000895289808951F920F920FB60F9211240C
:102DE0002F933F934F935F936F937F938F939F9313
:102DF000AF93BF93EF93FF9380910D03811144C272
:102E00008BB190911D03907E8F71892B8BB988B106
:102E100090911F039870877F892B88B98BB1837E2F
:102E200090911C03892B8BB988B18F7E90911E03E2
:102E3000892B88B980911B0386BD82E085BD81E026
:102E400080930D0378948091310390913203892B04
:102E500009F0C1C08091560690918106981709F437
:102E6000A6C0E09156062E2F30E087E0E89FF001E3
:102E70001124E95AF94FF0933203E0933103828130
:102E800093819093890080938800808191819093B1
:102E90002D0380932C03E48180912E038E1761F122
:102EA000E0932E0383E1E89FF0011124EE57F94FE0
:102EB000F0933003E0932F0384859585A685B7852D
:102EC000B695A795979587958093160390931703CA
:102ED000A0931803B09319038093120390931303E4
:102EE000A0931403B093150380930E0390930F03E4
:102EF000A0931003B0931103E0912F03F0913003DE
:102F0000908980910C03892780931D03918980917A
:102F10000A03892780931F0387E0829FD001839F44
:102F2000B00D1124A95AB94F15968C91159740816F
:102F3000518162817381082E04C0769567955795FB
:102F400047950A94D2F7409320035093210360934E
:102F50002203709323034481558166817781082E73
:102F600004C076956795579547950A94D2F7409394
:102F70002403509325036093260370932703408511
:102F800051856285738504C07695679557954795F9
:102F90008A95D2F7409328035093290360932A031C
:102FA00070932B0316968C910E94611614C00E9498
:102FB000B516E0912F03F09130038289882339F010
:102FC0001092B3008091B0008F778093B00084E0BE
:102FD0000E946E1D59C1809119018130B1F486B1F2
:102FE000807290910001891781F0109219018CE094
:102FF000E1E0F1E0ADE0B1E001900D928A95E1F7FA
:103000008091110780648093110710921C03109225
:103010001E0340910E0350910F03609110037091B5
:1030200011038091200390912103A0912203B0917C
:103030002303840F951FA61FB71F80930E03909341
:103040000F03A0931003B0931103E0912F03F091AD
:1030500030034485558566857785481759076A0783
:103060007B0780F524E020931C0320E120931E03BE
:103070004485558566857785841B950BA60BB70B14
:1030800080930E0390930F03A0931003B09311034A
:1030900020898091010190910201A0910301B091DA
:1030A000040125FF04C00197A109B10903C00196DD
:1030B000A11DB11D8093010190930201A093030112
:1030C000B0930401409112035091130360911403D3
:1030D000709115038091240390912503A0912603FC
:1030E000B0912703840F951FA61FB71F809312036B
:1030F00090931303A0931403B0931503448555854F
:1031000066857785481759076A077B0778F5209108
:103110001C03286020931C034485558566857785AC
:10312000841B950BA60BB70B80931203909313038C
:10313000A0931403B0931503208980910501909109
:103140000601A0910701B091080126FF04C0019774
:10315000A109B10903C00196A11DB11D809305010C
:1031600090930601A0930701B093080140911603C4
:1031700050911703609118037091190380912803EF
:1031800090912903A0912A03B0912B03840F951FDE
:10319000A61FB71F8093160390931703A0931803DD
:1031A000B093190344855585668577854817590777
:1031B0006A077B0778F520911C03206120931C038C
:1031C0004485558566857785841B950BA60BB70BC3
:1031D0008093160390931703A0931803B0931903D9
:1031E00020898091090190910A01A0910B01B09171
:1031F0000C0127FF04C00197A109B10903C0019682
:10320000A11DB11D8093090190930A01A0930B01A8
:10321000B0930C0180911A01843071F490911C03D9
:1032200080912001892380931C0390911E0380913B
:103230002101892380931E0380912C0390912D03FB
:10324000019790932D0380932C03892B69F410929E
:10325000320310923103809156068F5F8093560699
:10326000863011F41092560690911C0380910B0346
:10327000892780931C0390911E038091090389275D
:1032800080931E0310920D03FF91EF91BF91AF91B8
:103290009F918F917F916F915F914F913F912F916E
:1032A0000F900FBE0F901F9018958091710182FFB3
:1032B00002C0289A01C0289880910B0380931C03B8
:1032C00080915C01880F8450819580931B038091CD
:1032D0006F00826080936F0008954F925F926F92AB
:1032E0007F928F929F92AF92BF92CF92DF92EF9296
:1032F000FF926B017C0180906D0190906E01A09017
:103300006F01B09070014090690150906A01609027
:103310006B0170906C01A3019201C501B4010E9480
:10332000AA3987FF19C06091240170E080E090E025
:103330000E943C382AE037ED43E25CE30E94EA3920
:10334000A70196010E94EA396B017C01A301920159
:103350000E94AA3987FD0AC0409228015092290193
:1033600060922A0170922B018FEF47C0A501940152
:10337000C701B6010E9488371816E4F020E030E05B
:10338000A901C701B6010E948837811109C01092B6
:1033900028011092290110922A0110922B012DC0B0
:1033A0008092280190922901A0922A01B0922B01CB
:1033B00081E023C0C0922801D0922901E0922A0125
:1033C000F0922B01A5019401C701B6010E9492362B
:1033D00020910503309106034091070350910803A3
:1033E0000E94EA390E94773820E030E040E85FE34D
:1033F0000E9493360E940B38862FFF90EF90DF904B
:10340000CF90BF90AF909F908F907F906F905F9084
:103410004F90089590911B01911121C081110EC010
:10342000109228011092290110922A0110922B016A
:103430008091B0008F778093B0000FC090917101A0
:1034400091FF05C0803219F440E050E0BA01CB0191
:10345000BA010E946D190E9461161092260108950A
:10346000CF93DF93239AC0EBD0E083E0888384E09E
:103470008093B10020916D0130916E0140916F01F8
:10348000509170016091690170916A0180916B01A6
:1034900090916C010E9492369B01AC0160E070E05B
:1034A0008EE793E40E9492376093050370930603BE
:1034B000809307039093080388818F778883DF9137
:1034C000CF9108956AE080E090E00E94A10245E576
:1034D00050E06CE271E081E090E00C94C3020F9345
:1034E0001F93CF93C82F8B010E94CE272DE0C29F40
:1034F000C00111244CE050E0B8019E5FCF911F91B4
:103500000F910C94C3021F93CF93DF93182FEB01FD
:103510008DE0189FB00111247E5F4CE050E0CE0199
:103520000E945D02892B59F48CE0FE0111928A956C
:10353000E9F7BE01812F0E946F1A80E001C081E08F
:10354000DF91CF911F910895EF92FF920F931F93F8
:10355000CF93DF93CDB7DEB72C970FB6F894DEBFCD
:103560000FBECDBF182F80FF0BC085E5E8E3F3E069
:10357000ACE2B1E005900D928A95E1F70E94621AE3
:1035800011FF10C0CE0101967C018CE0F701119271
:103590008A95E9F700E0B701802F0E946F1A0F5F4C
:1035A0000830C9F712FF14C060E080E093E00E9489
:1035B000A10260E081E093E00E94A10260E081E569
:1035C00093E00E94A10260E082E593E00E94A102E4
:1035D00013FF0AC060E08EEA93E00E94A10260E05F
:1035E0008FEA93E00E94A1022C960FB6F894DEBFFA
:1035F0000FBECDBFDF91CF911F910F91FF90EF9044
:1036000008951F920F920FB60F9211242F933F939C
:103610004F935F936F937F938F939F93AF93BF93DA
:10362000EF93FF93E091C600E13271F028F4E831A6
:1036300079F40E946C2956C0EF3321F0EE3741F443
:1036400082E003C081E001C088E00E946E1D4AC094
:10365000E7FF37C08E2F90E0FC01E458F109ED310F
:10366000F10508F03FC0E659FF4F0C94353B80E26E
:10367000ECCF80911A0185FF35C080E4E6CF81E070
:103680000DC082E00BC084E009C088E007C080E183
:1036900005C080E203C080E401C080E80E94551D9F
:1036A00021C081E00BC082E009C084E007C088E04F
:1036B00005C080E103C080E201C080E40E944C1D8F
:1036C00011C0A091990281E08A0F813809F480E04D
:1036D00090919802891731F0B0E0A95EBD4FEC934C
:1036E00080939902FF91EF91BF91AF919F918F913C
:1036F0007F916F915F914F913F912F910F900FBEEE
:103700000F901F9018951F920F920FB60F921124D1
:103710008F939F93EF93FF9380910403E82FF0E042
:10372000E556FD4F90819093C6008F5F893609F46E
:1037300080E08093040390919A02891305C08091E0
:10374000C1008F7D8093C100FF91EF919F918F9178
:103750000F900FBE0F901F901895E0919A0291E084
:103760009E0F993631F490E004C02091110724FD9A
:103770000FC0209104032917C1F3F0E0E556FD4F77
:10378000808390939A028091C10080628093C100EF
:103790000895CF93C82F81E393E00E942B278C2FAD
:1037A0000E940527CF910C94D010EF92FF920F93B7
:1037B0001F93CF93DF9360915C0170E080E00E94E3
:1037C000F41060915F0170E081E00E94F41060915C
:1037D0005D0170E082E00E94F41060915E0170E093
:1037E00083E00E94F4106091710162FB662760F92A
:1037F00070E084E00E94F4106091710166FB66271E
:1038000060F970E085E00E94F41080917101082E4B
:10381000000C990B692F661F6627661F70E086E013
:103820000E94F4106091600170E08AE00E94F41040
:103830004091610150916201609163017091640156
:1038400023E08BE00E94D410409165015091660105
:10385000609167017091680123E08CE00E94D410B0
:1038600060917101617070E08DE00E94F4106091D0
:10387000710165FB662760F970E084E10E94F41035
:103880006091710163FB662760F970E085E10E9439
:10389000F410609171016295617070E086E10E94A0
:1038A000F4106091720170E087E10E94F410409181
:1038B000730150917401609175017091760123E05C
:1038C00088E10E94D4104091770150917801609175
:1038D000790170917A0123E089E10E94D41060910E
:1038E0007B0170917C018AE10E94F41040917D017E
:1038F00050917E0160917F017091800123E08BE106
:103900000E94D4104091690150916A0160916B014D
:1039100070916C0120E08EE10E94D41040916D0105
:1039200050916E0160916F017091700120E08FE104
:103930000E94D410609171016695617070E080E220
:103940000E94F410D4E6F12C0CE211E083E0E82EA2
:10395000ED0ECD2F82E0F81691F0E3E0FE16E9F0CF
:10396000F1E0FF1631F0F8014081518162817381ED
:103970001AC0F801448555856685778514C020E016
:1039800030E041E655E4F801608D718D828D938DB4
:103990000E949237AB01BC0106C0F80144A155A1B9
:1039A00066A177A1705823E08C2F0E94D4100C5F81
:1039B0001F4FCF5FEC12CECFD65FF394DC3821F6E9
:1039C000DF91CF911F910F91FF90EF90089581119A
:1039D00004C08DE893E00C942B270C94C91BCF9363
:1039E000DF93CBE1D7E08991882319F00E94AD1BCA
:1039F000FACFDF91CF910895CF93DF9321E5829F96
:103A0000C0011124EC01DD5F40E550E0BE018BE117
:103A100097E00E945D02892B69F410921B070E94B7
:103A2000CE2740E550E06BE177E0CE010E94C30273
:103A300080E001C081E0DF91CF910895CF93DF93C3
:103A4000C0E08C2F0E94FC1C81110EC010921B073D
:103A50008EE30E94AD1B0E94EF1C8AE30E94AD1B07
:103A600087E00E94C91B12C080911B07882371F058
:103A70000E940C03D82F8EE30E94AD1B0E94EF1C06
:103A80008AE30E94AD1B8D2F0E94E71CCF5FC230DE
:103A9000C1F6DF91CF9108959FB7F8942091140754
:103AA000822B809314079FBF08959FB7F8942091AD
:103AB0001307822B809313079FBF08959FB7F89435
:103AC000809312079FBF08952FB7F8949091110724
:103AD00080958923809311072FBF08959FB7F8948D
:103AE00020911107822B809311079FBF08958F9219
:103AF0009F92AF92BF92CF92DF92EF92FF920F937D
:103B00001F93CF93DF93EB012CE2E22E21E0F22E04
:103B10008C016B018CE0C80ED11C6991799189915F
:103B20009991F70181909190A190B1907F010E94AD
:103B30003C38A50194010E949237F801619371937A
:103B4000819391938F01CC15DD0539F7DF91CF91EA
:103B50001F910F91FF90EF90DF90CF90BF90AF90AB
:103B60009F908F9008951F920F920FB60F9211247D
:103B70008F938091600086FD05C080916000806415
:103B8000809360008F910F900FBE0F901F9018953B
:103B900096B19095892F877059F091FF02C082E00D
:103BA00001C080E090FD816092FF03C084600895B1
:103BB00080E008951F920F920FB60F9211242F9359
:103BC0003F934F935F936F937F938F939F93AF93A5
:103BD000BF93CF93EF93FF93809160008F7B80938F
:103BE00060000E94C81DC82F882389F080FD0E94B4
:103BF0006C29C2FF05C08091110782608093110774
:103C0000C1FF05C080911107886080931107FF9163
:103C1000EF91CF91BF91AF919F918F917F916F91D4
:103C20005F914F913F912F910F900FBE0F901F907A
:103C300018952F923F924F925F926F927F928F9240
:103C40009F92AF92BF92CF92DF92EF92FF920F932B
:103C50001F93CF93DF93CDB7DEB7EC970FB6F894F1
:103C6000DEBF0FBECDBF80911E0180FD82C7909147
:103C7000560680911507981709F47BC7809118079D
:103C800090911907892B09F01CC310911E0112FF96
:103C900009C08091550622E3289FC00111248B5C46
:103CA0009C4F02C00E94BE2790931907809318076B
:103CB00020901807309019072114310409F459C7CE
:103CC0000091E206802F817000FF03C01092E2068F
:103CD000F1C09091E1069F5F953009F0892F8093A4
:103CE000E106E82EF12C33E13E9DF0013F9DF00D01
:103CF0001124EE57F94FF0931707E0931607D101FF
:103D000050969C91908B95FF0AC0B8E0B18BD10181
:103D1000E3E18E9FC001112420E030E002C0118A4F
:103D2000F6CF4D915D916D917D91F901E80FF91FED
:103D3000EE57F94F689412F8440F551F661F771F0E
:103D40001694D1F740835183628373832C5F3F4F76
:103D50002C30310531F723E12E9DF0012F9DF00D20
:103D600011249F012E57394FF10184859585A68531
:103D7000B78543E0880F991FAA1FBB1F4A95D1F74B
:103D8000F90184879587A687B787D1011C966D9125
:103D90007D918D919C911F970E943A386093E70620
:103DA0007093E8068093E9069093EA06F101268D68
:103DB000378D40A151A10E9492379B01AC016093C5
:103DC000EB067093EC068093ED069093EE0660E0B0
:103DD00070E080EA9FE30E9492376093EF06709351
:103DE000F0068093F1069093F2061092E30610928B
:103DF000E4061092E5061092E60611FD02C003FFEC
:103E00001FC0609100077091010780910207909197
:103E100003076093F8067093F9068093FA0690936F
:103E2000FB069B01AC010E94EA39D10152966D93C9
:103E30007D938D939C935597077F0093E2060FC067
:103E4000F10162897389848995890E94893A609316
:103E5000F8067093F9068093FA069093FB06F3E157
:103E6000FE9DC001FF9D900D11249C012E57394FDE
:103E70007901D90152961C928091710181FF1AC07B
:103E8000F101818985FF16C022A533A544A555A55A
:103E900060E070E080E89FE30E94923760930C0737
:103EA00070930D0780930E0790930F07E1E0D70101
:103EB0005296EC931092F4061092F5061092F606C4
:103EC0001092F706D1015A962D913D914D915C913A
:103ED0005D9729833A834B835C8360E070E080E0E8
:103EE0009FE30E9492374B015C01F101468C578C95
:103EF00060A071A011FF4BC0F2E0F093F306D10176
:103F00005296CD90DD90ED90FC905597A7019601CB
:103F10000E94EA399B01AC01C301B2010E949236B2
:103F20004B015C0120E030E0A9010E94883787FF47
:103F30001DC029813A814B815C81CA01B9010E946F
:103F40009336A30192010E94EA399B01AC01C7019B
:103F5000B6010E9492360E94893A609300077093DE
:103F600001078093020790930307A8C18092F4068B
:103F70009092F506A092F606B092F706109200070E
:103F800010920107109202071092030797C1109236
:103F9000F30640920407509205076092060770925C
:103FA000070712FF0CC01092000710920107109231
:103FB000020710920307C12CD12C760124C0E09196
:103FC0003403EF5FE03109F4E0E0809155068E178D
:103FD00059F0B2E3BE9FF0011124EB5CFC4FC288A4
:103FE000D388E488F58803C0C12CD12C7601C701A1
:103FF000B6010E94893A609300077093010780938D
:10400000020790930307C1010E944B27698B7A8BAB
:104010008B8B9C8B9B01AC010E94EA3969877A8764
:104020008B879C87D10152962D913D914D915C914A
:1040300055972D833E834F8358870E94883787FF8B
:104040006CC029853A854B855C856D817E818F8129
:1040500098850E949236A50194010E94EA399B013D
:10406000AC01C301B2010E949236609304077093C1
:104070000507809306079093070720E030E0A90129
:104080000E94883718163CF1B2E0B093F3062981FC
:104090003A814B815C81CA01B9010E949336A30128
:1040A00092010E94EA399B01AC016D817E818F8172
:1040B00098850E9492360E94893A60930007709317
:1040C000010780930207909303078091E2068860BE
:1040D0008093E206F3C0A701960169857A858B85F6
:1040E0009C850E949236A50194010E94EA39609352
:1040F00008077093090780930A0790930B07298993
:104100003A894B895C892093FC063093FD064093E5
:10411000FE065093FF0633E0B6C0A70196016D81FD
:104120007E818F8198850E949236A50194010E941C
:10413000EA39A30192010E94933620E030E040E08A
:104140005FE30E94EA396D877E878F87988B20E036
:1041500030E0A9010E94AA3918160CF097C02D85ED
:104160003E854F855889C301B2010E94AA391816AD
:104170000CF088C0A701960169857A858B859C859E
:104180000E949236A50194010E94EA399B01AC017C
:10419000609308077093090780930A0790930B07B1
:1041A0006D857E858F8598890E94AA391816CCF571
:1041B00089899A89AB89BC898093FC069093FD0616
:1041C000A093FE06B093FF062D813E814F81588556
:1041D00069857A858B859C850E948837811104C00A
:1041E00091E09093F3066AC02D813E814F815885FE
:1041F00069857A858B859C850E949236A5019401FC
:104200000E94EA399B01AC01C301B2010E949236BF
:104210006093040770930507809306079093070740
:104220004DC02D853E854F855889209304073093D6
:10423000050740930607509307072093080730931C
:10424000090740930A0750930B0729813A814B8154
:104250005C81CA01B9010E9493362D853E854F8548
:1042600058890E94EA39A70196010E9493360E945C
:10427000893A6093FC067093FD068093FE06909346
:10428000FF061CC032E03093F30618C010920407FA
:1042900010920507109206071092070780910007F9
:1042A00090910107A0910207B09103078093FC064B
:1042B0009093FD06A093FE06B093FF06186010933E
:1042C0001E0180918106482F50E05A8B498B87E070
:1042D000849FF001859FF00D1124E95AF94F8091D8
:1042E000E1068483A0911807B0911907BCAFABAF6A
:1042F0005E96BC91BAA3EBADFCADF78DFBA3ABAD65
:10430000BCAD9096BC91BCA3EBADFCADF1A1FDA3FF
:104310002091EF063091F0064091F1065091F2069F
:104320006AA17BA18B2F9F2F0E9492366EA77FA739
:1043300088AB99AB20E030E0A9010E94883787FF65
:1043400004C01EA61FA618AA19AA2091FC062E8B2F
:104350003091FD063F8B4091FE06488F5091FF063D
:10436000598F809104078A8F909105079B8FA091A8
:104370000607AC8FB0910707BD8FE091F806E9837F
:10438000F091F906FD832091FA0629873091FB060A
:104390003D87409108074EA3509109075FA3809184
:1043A0000A0788A790910B0799A7A091F306AD8BF8
:1043B000B091F406BAA7E091F506EBA7F091F606E6
:1043C000FCA72091F7062DA7309100073BAB409149
:1043D00001074CAB509102075DAB809103078EAB98
:1043E0002EA13FA148A5592F6A8D7B8D8C8D9D8D67
:1043F0000E948837811103C092E09AAB02C0A1E00D
:10440000AAAB3AA02BA01CA10DA18EE3C82E83EC71
:10441000D82E8EE2E82E89E3F82E412C512C320161
:10442000CE8EDF8EE8A2F9A23D89313009F4F2C0C8
:10443000ABADBCAD313008F47BC0333009F020C1E6
:104440005A962D913D914D915C915D97C701B601B2
:104450000E94EA394B015C012E893F89488D598DB4
:1044600069817D8189859D850E9492369B01AC0181
:10447000C501B4010E94AA3987FD31C02A8D3B8D48
:104480004C8D5D8D6AA17BA18CA19DA10E9492366D
:104490009B01AC010E9493366B017C0129813D8117
:1044A00049855D856E897F89888D998D0E949336B7
:1044B0009B01AC01C701B6010E9492376B017C01E0
:1044C000BE89B983EF89ED83F88DF987298D2D8712
:1044D0003A8C2B8C1C8D0D8D31E03D8B51C120E031
:1044E00030E040E05FE3C501B4010E94EA399B017E
:1044F000AC0169817D8189859D850E949236A701E5
:1045000096010E94EA399B01AC01632D722D812F27
:10451000902F0E949236362E272E182F092FA50194
:10452000940169817D8189859D850E9492366DC047
:104530005A962D913D914D915C915D97C701B601C1
:104540000E94EA394B015C0120E030E040E05FE38B
:104550000E94EA3929813D8149855D850E94933613
:10456000A70196010E94EA399B01AC01632D722DCF
:10457000812F902F0E949236362E272E182F092F2A
:10458000262F372F482F592F6A8D7B8D8C8D9D8D2F
:104590000E94AA3918168CF52A8D3B8D4C8D5D8DA5
:1045A0006AA17BA18CA19DA10E9492369B01AC01C6
:1045B0000E9493366B017C0129813D8149855D858F
:1045C0006E897F89888D998D0E9493369B01AC01FD
:1045D000C701B6010E9492376B017C01BE89B98385
:1045E000EF89ED83F88DF987298D2D873AA93D8BC9
:1045F0003A8C2B8C1C8D0D8DC3C0A5019401698153
:104600007D8189859D850E94933669837D83898715
:104610009D87B6C02E893F89488D598DC701B60147
:104620000E94EA399B01AC01632D722D812F902FDE
:104630000E9492365B014C019B01AC016EA17FA1EF
:1046400088A599A50E94AA3918160CF095C02EA12C
:104650003FA148A559A5632D722D812F902F0E944F
:1046600092362E893F89488D598D0E9492376B0171
:104670007C013EA02FA018A509A542E04D8B80C06B
:104680005A962D913D914D915C915D97C701B60170
:104690000E94EA394B015C0129813D8149855D8594
:1046A0000E94883787FF39C020E030E040E05FE3B8
:1046B000C501B4010E94EA399B01AC0169817D8189
:1046C00089859D850E949236A70196010E94EA394C
:1046D0009B01AC01632D722D812F902F0E94923689
:1046E0006FAB78AF89AF9AAF2AA53BA54CA55DA566
:1046F0000E94AA3918168CF4A501940169817D8164
:1047000089859D850E94923669837D8389879D87EF
:104710003FA828AC19AD0AAD33C02AA53BA54CA5CE
:104720005DA5632D722D812F902F0E9492369B01E3
:10473000AC010E9493366B017C0129813D81498542
:104740005D856BA97CA98DA99EA90E9493369B01CA
:10475000AC01C701B6010E9492376B017C01BBA975
:10476000B983ECA9ED83FDA9F9872EA92D873AA479
:104770002BA41CA50DA504C03A2C2B2C182D092DFB
:10478000A7019601C301B2010E9493362B013C019F
:104790002E8D3F8D48A159A10E94883787FF07C001
:1047A000A30192016E8D7F8D88A199A11CC02EA5B9
:1047B0003FA548A959A9632D722D812F902F0E94E2
:1047C000AA39181624F52EE333EC4EE259E36E8D28
:1047D0007F8D88A199A10E9493366E8F7F8F88A3C9
:1047E00099A3A30192010E9492366B017C01232DB3
:1047F000322D412F502F6AA57BA58CA59DA50E9427
:10480000883787FD11CE3D893093F30603C04D896B
:104810004093F30689819D81A985BD858093F80623
:104820009093F906A093FA06B093FB06E091160761
:10483000F09117079289911104C080911E0183FFA6
:104840003FC0ABADBCAD51968C915197807349F18F
:104850009E96CD90DD90ED90FC90D1979923D1F06C
:1048600020910C0730910D0740910E0750910F07D2
:104870006091F8067091F9068091FA069091FB0616
:104880000E94EA399B01AC01C701B6010E94EA39D6
:104890006B017C01C701B6010E946D19809310075E
:1048A0000AC0109228011092290110922A01109238
:1048B0002B011092100780911E01877F80931E01AB
:1048C00047E029893A89429FF001439FF00D112466
:1048D000E95AF94FFA87E98780911007868320917A
:1048E000EB063091EC064091ED065091EE06632DFB
:1048F000722D812F902F0E94EA3969837A838B83EE
:104900009C830E9471376B017C016091E706709176
:10491000E8068091E9069091EA060E9471374B0102
:104920005C01A70196010E9492360E940B386D83AC
:104930007E838F839887ED81FE81A985BA85ED936B
:10494000FC93EF2B41F480911E0181FF04C0816034
:1049500080931E010EC12091E3063091E406409140
:10496000E5065091E606C301B2010E9493362B0181
:104970003C0129813A814B815C81C501B4010E94CF
:1049800092369B01AC01C301B2010E9492374B01E8
:104990005C0120EC31EE44E65EE40E94EA390E94BC
:1049A00071370E940B38603D37E073078105910530
:1049B00060F4A7E049895A89A49FF001A59FF00DF2
:1049C0001124E95AF94F158253C0603ABFE07B07C2
:1049D0008105910560F447E029893A89429FF001F9
:1049E000439FF00D1124E95AF94F51E011C0603492
:1049F000AFE17A078105910568F447E029893A8992
:104A0000429FF001439FF00D1124E95AF94F52E003
:104A100055830CC027E0A989BA892A9FF0012B9FF2
:104A2000F00D1124E95AF94F33E03583A7E04989A5
:104A30005A89A49FF001A59FF00D1124E95AF94F5E
:104A40002581022E04C096958795779567950A94DF
:104A5000D2F74D815E8102C0440F551F2A95E2F7BF
:104A6000518340836115710551E08507910568F414
:104A700027E0A989BA892A9FF0012B9FF00D112404
:104A8000E95AF94F7383628304C04FEF5FEF53839A
:104A9000428380911507809381068F5F863019F0DD
:104AA0008093150702C010921507E0911807F09146
:104AB0001907832D922DA12FB02F868F978FA0A33A
:104AC000B1A3C092E706D092E806E092E906F09220
:104AD000EA0629813A814B815C81C701B6010E94B7
:104AE0009236A50194010E94EA396093E30670931F
:104AF000E4068093E5069093E6062091F406309153
:104B0000F5064091F6065091F706632D722D812F20
:104B1000902F0E9488378111AAC820E030E0A901B7
:104B2000632D722D812F902F0E94AA3990911E0122
:104B3000181614F092FF04C0916090931E0119C0E2
:104B4000109219071092180790913403809155061E
:104B5000891709F48CC881E0890F803109F480E05D
:104B600020913303921302C0809333038093340364
:104B70007EC8EC960FB6F894DEBF0FBECDBFDF91B6
:104B8000CF911F910F91FF90EF90DF90CF90BF904A
:104B9000AF909F908F907F906F905F904F903F90DD
:104BA0002F900895CF93DF93C0911807D0911907E4
:104BB0002097C9F08091E20681608093E2066091BF
:104BC000F8067091F9068091FA069091FB069B0118
:104BD000AC010E94EA396A8B7B8B8C8B9D8B109287
:104BE000190710921807DF91CF910895CF93DF93A3
:104BF0000E94B51680E3E1EEF6E0DF011D928A9592
:104C0000E9F7CEE0D3E085E2FE0111928A95E9F75B
:104C100010921907109218071092560610928106EA
:104C200081E08093150710920D030E946F1680910A
:104C30000C038F878BB1837E90910B03892B8BB9EB
:104C40008BB18F7190910C03892B8BB980910A03E2
:104C5000898B88B18F7E90910903892B88B988B19F
:104C6000877F90910A03892B88B9DF91CF910895AE
:104C7000109200019091710197FD03C090E2909312
:104C80000001882331F09091000180E28927809310
:104C9000000108958F929F92AF92BF92CF92DF92C0
:104CA000EF92FF920F931F93CF93DF93CDB7DEB7B1
:104CB0002D970FB6F894DEBF0FBECDBF6B017C0100
:104CC000042F20E030E0A9010E94883787FF07C049
:104CD0008DE20E94AD1BF7FAF094F7F8F094102FD4
:104CE000123060F020E030E048EC52E4C701B60139
:104CF0000E94EA396B017C011250F2CF00FF0AC01A
:104D000020E030E040E251E4C701B6010E94EA39F8
:104D10006B017C0120E030E040E05FE3C701B601B9
:104D20000E9493360E94043810E03AE0832E912CC2
:104D3000A12CB12C611571058105910591F0EE242E
:104D4000E394F12CEC0EFD1EE10EF11CA501940183
:104D50000E94133B605DF7016083B901CA011F5FC8
:104D6000E9CF80E3101748F4E1E0F0E0EC0FFD1F1D
:104D7000E10FF11D80831F5FF5CF101313C0FE01FB
:104D8000E10FF11D80E381831F5F0CC0101303C08E
:104D90008EE20E94AD1BFE01E10FF11D80810E9499
:104DA000AD1B11501111F2CF2D960FB6F894DEBF46
:104DB0000FBECDBFDF91CF911F910F91FF90EF906C
:104DC000DF90CF90BF90AF909F908F9008952091EB
:104DD000710120FF08C02BE832E441E25DE30E944C
:104DE000EA3941E001C040E00C944A26209171016B
:104DF00020FF08C02BE832E441E25DE30E94EA397B
:104E000044E001C043E00C944A26CF93DF938436FC
:104E100030F06AE00E94F33AC0E3C90F03C0C0E07B
:104E20008A3030F06AE00E94F33AD0E3D90F01C033
:104E3000D0E0805D0E94AD1BDD2319F08D2F0E9414
:104E4000AD1BCC2329F08C2FDF91CF910C94AD1B9F
:104E5000DF91CF910895CF93DF93FC018491EF010F
:104E60002196882321F00E94AD1BFE01F7CFDF9130
:104E7000CF910895E1E0F1E0ABEFB1E041915191C4
:104E8000619171914D935D936D937D9381E0ED30D0
:104E9000F807A1F70895BF92CF92DF92EF92FF92A9
:104EA0000F931F93CF93DF937C01FC0102A513A501
:104EB000D4A5C5A5818980FF18C06091230170E049
:104EC00080E090E00E943C382AE037ED43E25CE36A
:104ED0000E94EA399B01AC01B8018D2F9C2F0E94E2
:104EE000EA398B01D82FC92F2DC082FD17C06091E0
:104EF000220170E080E090E00E943C382AE037ED2B
:104F000043E25CE30E94EA399B01AC01B8018D2FBA
:104F10009C2F0E94EA398B01D82FC92FF701B6A028
:104F2000C7A0D0A4F1A42B2D3C2D4D2D5F2DB80191
:104F30008D2F9C2F0E94AA39181624F40B2D1C2D9E
:104F4000DD2DCF2D20E030E040E85FE3B8018D2F6C
:104F50009C2F0E94AA39181624F000E010E0D0E837
:104F6000CFE3B8018D2F9C2FDF91CF911F910F912F
:104F7000FF90EF90DF90CF90BF9008958091340321
:104F800090915506981739F022E3829FC0011124B1
:104F90008B5C9C4F089580E090E008950E94591624
:104FA0000E94451580911B01811108C00E94BE27F7
:104FB000892BB1F780911A01883091F308958CE123
:104FC000EBEFF1E0DF011D928A95E9F710923403CF
:104FD0001092550681E080931A07109233030895CA
:104FE0002F923F924F925F926F927F928F929F92F9
:104FF000AF92BF92CF92DF92EF92FF920F931F93E7
:10500000CF93DF93C0915506C11101C0C0E1C150DB
:10501000D0913303DC1709F41DC1EC2EF12C22E3EF
:10502000C29F800111240B5C1C4FF801A688B78831
:10503000C08CD18C628D738D848D958D9B01AC015C
:105040000E949336F801268D378D40A151A10E9410
:10505000EA394B018C019B01AC01B501C6010E94EC
:10506000883787FD02C05401680182E38E9DF001FC
:105070008F9DF00D1124EB5CFC4FC501D601828B96
:10508000938BA48BB58BC11101C0C0E1C150DC175B
:1050900061F022E32E9DC0012F9D900D11249C01F3
:1050A0002B5C3C4F7901D2E333C080913403D81399
:1050B00060C00E94D2255DC0AC2EB12CDA9DC0012B
:1050C000DB9D900D1124FC01EB5CFC4F6F01C111C5
:1050D00001C0C0E1C150809134038C1302C00E9412
:1050E000D225DA9D8001DB9D100D11240B5C1C4F35
:1050F000F80186889788A08CB18CA50194016289FB
:105100007389848995890E948837811106C0760148
:1051100080913303C813D0CF2CC0F801628D738DFA
:10512000848D958D9B01AC010E949336F801268DEC
:10513000378D40A151A10E94EA39F70122893389B4
:10514000448955890E9493362B013C019B01AC0197
:10515000C501B4010E94AA39F80118162CF4428A3C
:10516000538A648A758AD3CF828A938AA48AB58A3D
:10517000CECFD0913303F2E3DF9F800111240B5C8B
:105180001C4FC1E0CD0FC03109F4C0E0209055069E
:1051900082E3382EC21509F45BC0CC2ED12C3C9C86
:1051A000C0013D9C900D11249C012B5C3C4F79016A
:1051B000F8014288538864887588F9018288938849
:1051C000A488B588A5019401C301B2010E94883763
:1051D00087FF24C0F801628D738D848D958D9B01AE
:1051E000AC010E949336F801268D378D40A151A164
:1051F0000E94EA39A30192010E9493362B013C01DF
:105200009B01AC01C501B4010E94AA39181634F4FF
:10521000F701428A538A648A758ADC2F3C9CF0012C
:105220003D9CF00D1124EB5CFC4F26893789408DA5
:10523000518D62897389848995890E94883781118B
:1052400001C0DC2FCF5FC03109F4C0E08701A2CFDD
:10525000D0933303DF91CF911F910F91FF90EF9087
:10526000DF90CF90BF90AF909F908F907F906F9086
:105270005F904F903F902F9008951F93CF93DF93AF
:10528000142F20E030E040EA51E40E94EA390E9405
:1052900071370E940B38EB012097D1F080911B01F0
:1052A000811116C0111103C00E94451506C00E944D
:1052B0000D1180911C0181FD0BC02FEF80E792E062
:1052C000215080409040E1F700C000002197E4CFDA
:1052D000DF91CF911F9108958091110784FD1FC028
:1052E00080E10E946E1D8091B0008F778093B000A6
:1052F0002D9890911A01892F8C7221F480911E01B2
:10530000867069F0943031F480911207811105C0E4
:1053100086E001C083E00E945E1D0C94B5160895DE
:105320008F929F92AF92BF92CF92DF92EF92FF92B5
:105330000F931F93CF93DF937C016B01DC01CC9122
:10534000D0E0FE01E55EF84F80818D3229F4EF0157
:105350002296818101E009C08B3219F0C45ED84FDA
:1053600003C0EF012296818100E0912CF0E010E073
:1053700020E030E0A9015E01E0EDE80FEA30D0F472
:10538000FF5FF93098F491101150A5E0B0E00E9451
:105390003B3BDC01CB01880F991FAA1FBB1F9C015F
:1053A000AD012E0F311D411D511D0AC0911008C0C5
:1053B0001F5F06C0EE3F41F4911006C099249394FC
:1053C0002196D5018C91D7CFFF2309F44FC0CA0194
:1053D000B9010E943A384B015C0120E030E0A9019C
:1053E0000E948837882349F11F3F64F42AE037ED93
:1053F00043E25CE3C501B4010E94EA394B015C0160
:105400001E5FF2CF1F3F59F42DEC3CEC4CEC5DE3FA
:10541000C501B4010E94EA394B015C010EC01123A1
:1054200061F020E030E040E251E4C501B4010E94A7
:10543000EA394B015C011150F2CF002351F0B7FA69
:10544000B094B7F8B094F60180829182A282B382C0
:1054500006C0D6018D929D92AD92BC921397CB510E
:10546000D740C150F701C08381E001C080E0DF91E7
:10547000CF911F910F91FF90EF90DF90CF90BF9051
:10548000AF909F908F9008952F923F924F925F928E
:105490006F927F928F929F92AF92BF92CF92DF9244
:1054A000EF92FF920F931F93CF93DF93CDB7DEB7A9
:1054B000A5970FB6F894DEBF0FBECDBF90911B012C
:1054C000911117C28D8FFE013D9689E0DF011D927B
:1054D0008A95E9F786E08D8B2DEC3CEC4CE45DEB96
:1054E000609154017091550180915601909157013E
:1054F0000E94EA396B017C0120E030E048EC51E485
:105500000E94883787FF11C020E030E040E250E47D
:10551000C701B6010E94AA3918166CF0C12CD12C13
:1055200030E2E32E30E4F32E06C0C12CD12C28EC5F
:10553000E22E21E4F22E20912C0130912D01409198
:105540002E0150912F01C701B6010E94EA390E9435
:1055500004386E8F7F8F88A399A39CE2A92E91E0D7
:10556000B92EFE0176964F0100E010E0C12CD12C3F
:105570007601FD8D2F2E312C802F002321F001305C
:1055800021F090E103C094E001C098E0D4019D9324
:105590004D01F10102C0F595E7958A95E2F7E0FF2C
:1055A00017C020E030E040EC5FEBD50194966D91A0
:1055B0007D918D919C9197970E94EA392B013C0136
:1055C000A70196010E94883787FD02C0620173011E
:1055D0000F5F1F4FB4E0AB0EB11C0330110561F635
:1055E00040907701509078016090790170907A0135
:1055F00084E0A82EBB24B39461E071E0CE01019653
:105600000E94771D1092210180917201E82FF0E035
:10561000FBA3EAA3FE01319621E031E03A8F298F06
:105620003C8F2B8FCE0146964C0130E01DA21CA270
:1056300020E010E0B701A6017058C1010CA002C023
:10564000959587950A94E2F780FF27C02F5FAB8D71
:10565000BC8D1D921D921D921C9213978AA19BA135
:105660000CA002C0959587950A94E2F780FF03C0CD
:10567000BB2019F007C0BB2029F0C082D182E28292
:10568000F38204C04083518362837383D4018C917D
:10569000182BBCA1B11101C030E18CA19DA10196D4
:1056A0009DA38CA39FEF891A990A3496AB8DBC8D6C
:1056B0001496BC8FAB8F8CA19DA1039709F0BDCF31
:1056C00030932101622F70E080E090E00E943A3830
:1056D0000E94893A9B01AC0110932001C301B201E1
:1056E0000E94EA396D877E878F87988BBE01635F42
:1056F0007F4FCE0101960E946F3394E090931E017C
:105700000E94191E0E945519C12CD12C760100E06F
:10571000BB2009F45CC00E944202FE01769620E0A4
:1057200030E0482F50E09191692F612371F0BA0168
:10573000022E02C0759567950A94E2F760FF05C0D6
:1057400090951923211101C002602F5F3F4F233034
:10575000310549F71093200190912101992331F0EF
:1057600083FF04C010922101046002C0002379F17C
:1057700000FF22C0802F8670863041F180910101A8
:1057800090910201D601A81BB90BCD01B7FF03C050
:10579000919581959109092E000CAA0BBB0B2E8DBA
:1057A0003F8D48A159A1281739074A075B077CF4A8
:1057B0008AE00E945E1D2FC00160C0900101D09060
:1057C0000201E0900301F090040101C000E00E949A
:1057D000191E80911107847339F11091110714FF7C
:1057E00003C086E00E945E1D15FF03C087E00E9493
:1057F0005E1DB11007C00E9442023D8D832339F027
:1058000088E003C012FF03C089E00E945E1D809102
:105810001207882329F00E946C290E94451569C04F
:1058200084E00E94641D08C0812F8C7109F070CF44
:105830008091210181116CCF0E94F62500917B019E
:1058400010917C010115110549F08FE99FE0019746
:10585000F1F700C0000001501109F4CF91E0B92622
:10586000C9F020E030E040EA50E460917D017091A1
:105870007E0180917F01909180010E94EA396B0145
:105880007C0140907301509074016090750170909C
:10589000760110C0C0907D01D0907E01E0907F0124
:1058A000F0908001409077015090780160907901EC
:1058B00070907A01AA94A1109FCEC101002E02C05F
:1058C000959587950A94E2F780FF07C0A98DBA8D58
:1058D0001D921D921D921C9213970F5F1F4FE98D11
:1058E000FA8D3496FA8FE98F0330110531F7109253
:1058F0001E01A5960FB6F894DEBF0FBECDBFDF9197
:10590000CF911F910F91FF90EF90DF90CF90BF90BC
:10591000AF909F908F907F906F905F904F903F904F
:105920002F900895CF93DF93CDB7DEB761970FB671
:10593000F894DEBF0FBECDBF8091C000826080931F
:10594000C0001092C50080E18093C4008091C10026
:1059500088698093C10080E090E00E940B028A3049
:1059600009F043C545E550E061E070E08CE291E06C
:105970000E945D02892B09F438C58AB18C618AB90D
:10598000209A8AB1806E8AB93C9A3B9A80918100B4
:105990008F7E809381008091810088608093810058
:1059A000809180008C7F80938000809180008F7038
:1059B0008093800080916E00887F80936E0014BC7D
:1059C00015BC80916E00816080936E0087B1887FE6
:1059D00087B988B1876088B980916C0087608093AF
:1059E0006C00809168008260809368008CE0E1E048
:1059F000F1E0DF011D928A95E9F7789410921A017F
:105A00008091710184FF03C081E080931A01AAE1B3
:105A10002A2EA1E03A2E9924939480911A0192E1C2
:105A2000F10111929A95E9F780931A0184E6809327
:105A3000220180932301809324018CE0ADE0B1E04A
:105A40001D928A95E9F71092190110921107109290
:105A500012071092130710921407809199028093F5
:105A6000980280E4E1E8F1E011928A95E9F765EAAD
:105A700071E080E00E94831A811103C087E00E94D8
:105A8000C91B0E94301A259A2D980E94E8013D9862
:105A9000459A80E00E9438260E94DF270E94F62562
:105AA0000E943A270E9457028AE591E00E942B2724
:105AB0008091710183FF10C00E944202882361F02F
:105AC00090921A018FEB92E00E942B278EE592E0D4
:105AD0000E942B270E94081180911A01817899F069
